:020000040000FA
:0600000016EF17F01200DC
:0600080004EF08F01200F5
:060018000CEF08F01200DD
:0610000016EF17F01200CC
:0610080063EF10F012007E
:06101800B5EF10F012001C
:06102A0001004A2E000047
:08103000A60000003A000000D8
:08103800D9CFE6FFE1CFD9FF9B
:10104000E6526A6A686A160E6F6E9F0E6B6E7B0EB2
:10105000696E6D8C6E6A020EE66EE66AE66A710E65
:10106000E66E0F0EE66EDCEC16F00B6E050EE15E22
:101070000B506D9CDF6ADF500B6E0C6A100E0B5C20
:10108000000E0C5810E2DF50040DF3CFE9FFF4CF4F
:10109000EAFF000EE926040EEA22EE6AEE6AEE6A24
:1010A000EE6ADF2AE8D7160E706E68A602D0689640
:1010B000FCD701011B6B206B216B226B6D98080E16
:1010C0000F6F040E106F016B006BE552E552E7CF16
:1010D000D9FF1200D9CFE6FFE1CFD9FFE6520101D7
:1010E000000507E16DBA05D0686A69806988020E5B
:1010F000006F6850040B05E06950040B02E068942F
:10110000B5D86DA202D0A19A81D06850010B12E02F
:101110006950010B0FE090DF0101040E006F040124
:10112000400E026F040E036F080E016F006B8C0EF1
:10113000001368906850100B05E06950100B02E036
:1011400083D868986850400B13E06950400B10E05A
:10115000010EE66EE66A000EE66EE66A730EE66E55
:10116000E66A74EC11F00B6E060EE15E0B50689CA3
:101170006850200B04E06950200B01E04CD8685007
:10118000020B12E06950020B0FE0010EE66EE66AF8
:10119000000EE66EE66AE668E66874EC11F00B6E27
:1011A000060EE15E0B506A6A040E0101E76E00193B
:1011B000E8AE02D0E73402D0E750005D02E2A19A27
:1011C00025D069A622D0DF6A040EDF5C1EE268A685
:1011D0001BD06CCF28F16896780E0101281502E12A
:1011E0005AD810D0000EE66EE66A280EE66E010EA2
:1011F000E66E720EE66EE66A74EC11F00B6E060E89
:10120000E15E0B50DF2AE0D700D0A19AE552E5520B
:10121000E7CFD9FF120070A015D003C1E9FF04C1C8
:10122000EAFFEF5080080DE10FC1E9FF10C1EAFFAE
:10123000EF50840806E103C1E9FF04C1EAFF8C0E08
:10124000EF6E7090689A1200698468986D82000E43
:10125000E66EE66AE66EE66A750EE66EE66A74ECBF
:1012600011F00B6E060EE15E0B501200000EE66EE2
:10127000E66AE66EE66A740EE66EE66A74EC11F0F3
:101280000B6E060EE15E0B506D92699468A402D05D
:101290006894FCD71200D9CFE6FFE1CFD9FFE65220
:1012A000FD0E010128155AE17E0E2815E8407F0B3E
:1012B000040DF3CF03F1F4CF04F1000E0327040E65
:1012C000042303C105F104C106F1057503C1E9FF5B
:1012D00004C1EAFFEF503C0BE842E8420D083CE154
:1012E00003C1E9FF04C1EAFF020EE926000EEA226B
:1012F000EECF0BF0EFCF0CF0480E0B1802E1040E0E
:101300000C1828E103C1E9FF04C1EAFF020EE92637
:10131000000EEA22400EEE6E040EED6EDF6ADF5024
:101320000B6E0C6A080E0B5C000E0C5813E2DF50BB
:10133000EA6A480FE96E040EEA22EF50E66EDF50CB
:10134000EA6A400FE96E040EEA22E552E750EF6EBA
:10135000DF2AE5D70DD801D02ED805D0FD0E2815EF
:10136000040801E14ED8E552E552E7CFD9FF12005B
:101370000FC1E9FF10C1EAFFEF50800B05E00FC17C
:10138000E9FF10C1EAFFEF6A0101176B186B1C6BD4
:101390001D6B1B6BB6D8000EE66EE66AE66EE66A5B
:1013A000030EE66EE66A74EC11F00B6E060EE15E5B
:1013B0000B502DEF0CF0020E0101185D02E1ADDBC8
:1013C0001FD06CD8010129511AE105C1E9FF06C1FE
:1013D000EAFFEE52080EEF6E05C1E9FF06C1EAFF13
:1013E000020EE926000EEA22400EEE6E040EED6EAD
:1013F00005C1E9FF06C1EAFF8C0EEF6E01D0296B33
:101400001200D9CFE6FFE1CFD9FFE6520FC1E9FFC5
:1014100010C1EAFFEF50400B01E0010EDF6E010149
:101420000F75080E005D0AE142C46EFF6E500008A1
:1014300003E2100E006F02D0040E006F180528E1C1
:101440000FC1E9FF10C1EAFF020EE926000EEA22F1
:10145000480EEE6E040EED6ED5DA020E0101175D38
:1014600007E10FC1E9FF10C1EAFF840EEF6E0FD054
:10147000DF5007E10FC1E9FF10C1EAFFC80EEF6EB0
:1014800006D00FC1E9FF10C1EAFF880EEF6E01D050
:1014900005D8E552E552E7CFD9FF1200D9CFE6FFD4
:1014A000E1CFD9FF020EE1260101186B0FC1E9FF60
:1014B00010C1EAFFEF6A040E0F190B6E10C10CF099
:1014C0000BC0DEFF0CC0DDFFDECFE9FFDDCFEAFFA2
:1014D000EF6A20AF0CD02351241107E005D024C1BE
:1014E000FAFF01012351F96EFADF0101209F020E7C
:1014F000E15C02E2E16AE552E16EE552E7CFD9FF35
:10150000120004014051600BE842E842E842E84220
:10151000E842000901E058D041510C0A54E00B0A9E
:1015200043E00C0A35E0010A26E00B0A22E0020A39
:1015300020E0030A1CE0080A10E0010A0CE00F0A90
:1015400008E0030A01E03FD001011B8F080E006F85
:101550003BD0C8D839D07FDB37D00101010E196FDD
:10156000010E1A6F1B81010E1C6F1B8F2DD014D919
:101570002BD02BD829D044510101196F1A6B020EC0
:101580001927010E1A231B81010E1C6F1B8F1CD003
:1015900001011B8F04014451EA6A020FE96E010E3A
:1015A000EA2242C4EFFF10D0000EE66EE66AE66E55
:1015B000E66A020EE66EE66A74EC11F00B6E060E39
:1015C000E15E0B5001D000D01200D9CFE6FFE1CF91
:1015D000D9FF040EE1260401420510E140511F0B22
:1015E00000090CE101011B8F030E0401415D04E1C0
:1015F0000101010E276F02D00101276B0401425146
:1016000067E140511F0B020863E144510F0B0009D1
:101610005FE001011B8F040144BF10D044510F0B48
:10162000E96EEA6AD890E936EA36070EE926010E35
:10163000EA22EECFDEFFEDCFDDFF0FD044510F0BDE
:10164000E96EEA6AD890E936EA360F0EE926010E0D
:10165000EA22EECFDEFFEDCFDDFF030E415D07E1B5
:10166000DECFE9FFDDCFEAFF840EEF6E31D04451CB
:101670000F0B0C6A700F0B6E0F0E0C22020E0BC0BC
:10168000DBFF030E0CC0DBFF020EDBCFE9FF030E16
:10169000DBCFEAFFEE90ED5244AF0DD0DECFE9FF95
:1016A000DDCFEAFFEF6ADF74DECFE9FFDDCFEAFFCF
:1016B000400EEF6E0DD0DECFE9FFDDCFEAFF880EE2
:1016C000EF6EDF74DECFE9FFDDCFEAFFC80EEF6E0D
:1016D000040EE15C02E2E16AE552E16EE552E7CF19
:1016E000D9FF1200800E0401405D55E10101C00EDA
:1016F0001B6F04014351030A2EE0010A0EE0030AA6
:1017000003E001011B6B47D00101500E196F2C0E35
:101710001A6F120E1C6F1D6B3ED04251F66EF76AA7
:10172000D890F636F736110EF6262D0EF722090060
:10173000F5CF19F10A00F5CF1AF1020E0101F76A8F
:101740001925F66E1A51F7220900F5CF1CF10A008F
:10175000F5CF1DF120D0030E425D1AE24251F66E24
:10176000F76AD890F636F736130EF6262D0EF722C6
:101770000900F5CF19F10A00F5CF1AF119C1F6FFEA
:101780001AC1F7FF0800F55001011C6F1D6B02D054
:1017900001011B6B00D01200D9CFE6FFE1CFD9FFCA
:1017A000020EE1260401486B496B40511F0B020AEF
:1017B00012E0030A0DE0010A01E03BD001011B8F9A
:1017C000040148810101270502E10401488331D069
:1017D00001011B8F2ED001011B8F040144BF10D0CB
:1017E00044510F0BE96EEA6AD890E936EA36070EE3
:1017F000E926010EEA22EECFDEFFEDCFDDFF0FD0AE
:1018000044510F0BE96EEA6AD890E936EA360F0EBA
:10181000E926010EEA22EECFDEFFEDCFDDFFDECFBF
:10182000E9FFDDCFEAFFEF50040B02E0010E486F45
:1018300000D001011BAF07D0480E196F040E1A6FBC
:101840001B81020E1C6F020EE15C02E2E16AE552AE
:10185000E16EE552E7CFD9FF12006D9801011BBF81
:101860004AD020AF28D0020E186F0FC1E9FF10C177
:10187000EAFFEE52EF6A0FC1E9FF10C1EAFFC80E9E
:10188000EF6E05C1E9FF06C1EAFFEE52080EEF6EEA
:1018900005C1E9FF06C1EAFF020EE926000EEA22B1
:1018A000480EEE6E040EED6E05C1E9FF06C1EAFFBB
:1018B000C80EEF6E1FD005C1E9FF06C1EAFFEE5268
:1018C000080EEF6E05C1E9FF06C1EAFF020EE92628
:1018D000000EEA22400EEE6E040EED6E05C1E9FF29
:1018E00006C1EAFF8C0EEF6E0FC1E9FF10C1EAFFDF
:1018F000840EEF6E86D020BF84D0040140AF59D053
:1019000001011C510401465D01011D5104014759AB
:1019100004E246C41CF147C41DF174D80101010E54
:10192000186F05C1E9FF06C1EAFFEE52080EEF6E1F
:1019300005C1E9FF06C1EAFF020EE926000EEA2210
:10194000400EEE6E040EED6E05C1E9FF06C1EAFF22
:10195000800EEF6E296B03C1E9FF04C1EAFFEE526E
:10196000080EEF6E03C1E9FF04C1EAFF020EE9268B
:10197000000EEA22400EEE6E040EED6E03C1E9FF8A
:1019800004C1EAFF840EEF6E010E296F0FC1E9FF5B
:1019900010C1EAFF020EE926000EEA22480EEE6EA2
:1019A000040EED6E0FC1E9FF10C1EAFFC80EEF6E25
:1019B00028D00101020E186F0FC1E9FF10C1EAFF24
:1019C000EE52EF6A0FC1E9FF10C1EAFFC80EEF6ED9
:1019D00005C1E9FF06C1EAFFEE52080EEF6E05C130
:1019E000E9FF06C1EAFF020EE926000EEA22480ED0
:1019F000EE6E040EED6E05C1E9FF06C1EAFFC80EEA
:101A0000EF6E1200D9CFE6FFE1CFD9FF020EE1263B
:101A10000101080E1C5D000E1D590EE21CC1DEFF07
:101A20001DC1DDFF175103E1010E176F04D017052B
:101A300002E1020E176F03D0080EDE6EDD6A0FC1E1
:101A4000E9FF10C1EAFFEF920FC1E9FF10C1EAFF01
:101A5000EF900FC1E9FF10C1EAFF010EDB50EF125A
:101A60000FC1E9FF10C1EAFFEE52DFCFEFFF000E1A
:101A7000DB501C5F010EDB501D5B480E256F040E12
:101A8000266F1BB121D0D9CFE9FFDACFEAFFEE50A4
:101A9000ED1019E019C1F6FF1AC1F7FF192B000E5E
:101AA0001A230800F550E66E25C1E9FF26C1EAFFBA
:101AB000252B000E2623E552E750EF6EDF06010EC0
:101AC00001E2DB06E0D71FD0D9CFE9FFDACFEAFF8A
:101AD000EE50ED1018E019C1E9FF1AC1EAFF192B09
:101AE000000E1A23EF50E66E25C1E9FF26C1EAFF7A
:101AF000252B000E2623E552E750EF6EDF06010E80
:101B000001E2DB06E1D7020EE15C02E2E16AE552A6
:101B1000E16EE552E7CFD9FF1200D9CFE6FFE1CF62
:101B2000D9FF020EE12603C1E9FF04C1EAFFEE522C
:101B3000EFCFDFFFDFCF0BF00B500101215D000E77
:101B4000225903E221C1DFFF09D0DF500B6E0C6A7E
:101B50000B50215D216F0C502259226F010EDB6A60
:101B6000DF50F36E010EDBCFF4FFF350F45C16E2AE
:101B7000010EDB50EA6A480FE96E040EEA22EF50CC
:101B8000E66E1EC1E9FF1FC1EAFF1E2B000E1F23D8
:101B9000E552E750EF6E010EDB2AE2D7000ED88047
:101BA0002155000E225528E205C1E9FF06C1EAFFD2
:101BB000EE52080EEF6E05C1E9FF06C1EAFF020E04
:101BC000E926000EEA22480EEE6E040EED6E03C109
:101BD000E9FF04C1EAFFEF50400B07E105C1E9FF4F
:101BE00006C1EAFFC80EEF6E06D005C1E9FF06C1C7
:101BF000EAFF880EEF6E25D005C1E9FF06C1EAFFB6
:101C0000EE52080EEF6E05C1E9FF06C1EAFF020EB3
:101C1000E926000EEA22400EEE6E040EED6E05C1BE
:101C2000E9FF06C1EAFF840EEF6E2351241107E09D
:101C300005D024C1FAFF01012351F96EFADF010139
:101C4000209F020EE15C02E2E16AE552E16EE5529C
:101C5000E7CFD9FF120001011B8F020EE66EE66A84
:101C6000E66A710EE66E0F0EE66EDCEC16F00B6E99
:101C7000050EE15E0B50010EE66EE66AE66A020EA4
:101C8000E66E010EE66EDCEC16F00B6E050EE15E04
:101C90000B5042C401F10101015103E1100E006F2C
:101CA00012D0200E006F010EE66EE66A010EE66E9F
:101CB000010EE66E010EE66EE66A74EC11F00B6E34
:101CC000060EE15E0B501200D9CFE6FFE1CFD9FF3F
:101CD000020EE126000EDE6E040EDD6EFD0EDB5000
:101CE000E8240D6EFE0EDB50040DF3500D24040DA0
:101CF000F3500B6E0C6A020E0F0B05E0D8900C32FD
:101D00000B32E806FBE1D8900B360C36D8900B3638
:101D10000C36D9CFE9FFDACFEAFF0B50EE260C5094
:101D2000ED22DECFE9FFDDCFEAFFEF9EFD0EDB50B7
:101D30000FE1FE0EEA6ADB34FE0BEA36E96E070EAF
:101D4000E926010EEA22DECFEEFFDDCFEDFF0ED059
:101D5000FE0EEA6ADB34FE0BEA36E96E0F0EE92668
:101D6000010EEA22DECFEEFFDDCFEDFFDECFE9FF91
:101D7000DDCFEAFFEF9CDECFE9FFDDCFEAFF040E07
:101D8000E926000EEA22EF8C020EE15C02E2E16A33
:101D9000E552E16EE552E7CFD9FF1200D9CFE6FF59
:101DA000E1CFD9FF020EE126FE0EDB500C6A700F68
:101DB0000B6E0F0E0C220BC0DEFF0CC0DDFFDECF62
:101DC000E9FFDDCFEAFFFD0EDBCFEFFFDBA407D09D
:101DD000E66AFE0EDBCFE6FF77DFE552E552FD0E49
:101DE000DBA208D0010EE66EFE0EDBCFE6FF6CDF55
:101DF000E552E552020EE15C02E2E16AE552E16E73
:101E0000E552E7CFD9FF1200D9CFE6FFE1CFD9FFE6
:101E1000020EE126FE0EDB5020E105C1E9FF06C1FE
:101E2000EAFFEE52080EEF6E05C1E9FF06C1EAFFB8
:101E3000020EE926000EEA22400EEE6E040EED6E52
:101E400005C1E9FF06C1EAFF8C0EEF6E0FC1E9FF85
:101E500010C1EAFF840EEF6E3DD0FD0EDB50E8248A
:101E60000D6EFE0EDB50040DF3500D24040DF3CF68
:101E70000BF0F4CF0CF0000E0B26040E0C220BC05E
:101E8000DEFF0CC0DDFF840E0B6EDECFE9FFDDCF81
:101E9000EAFF0B50EF12FD0EDB50E8240D6EFE0E34
:101EA000DB50040DF3500D24010F040DF3CF0BF0A4
:101EB000F4CF0CF0000E0B26040E0C220BC0DEFF3C
:101EC0000CC0DDFF840E0B6EDECFE9FFDDCFEAFF35
:101ED0000B50EF12020EE15C02E2E16AE552E16EA4
:101EE000E552E7CFD9FF1200D9CFE6FFE1CFD9FF06
:101EF000020EE126FD0EDB500FE0FE0EEA6ADB3437
:101F0000FE0BEA36E96E0F0EE926010EEA22EECF4D
:101F1000DEFFEDCFDDFF0ED0FE0EEA6ADB34FE0BF6
:101F2000EA36E96E070EE926010EEA22EECFDEFF61
:101F3000EDCFDDFFDECFE9FFDDCFEAFF020EE926C0
:101F4000000EEA22FB0EDBCFEEFFFC0EDBCFEDFF37
:101F5000DECFE9FFDDCFEAFFEE52FA0EDBCFEFFF77
:101F6000400E0B6EDECFE9FFDDCFEAFF0B50EF1620
:101F7000880E0B6EDECFE9FFDDCFEAFF0B50EF12CC
:101F8000FD0EDB500CE0FE0EEA6ADB34FE0BEA3697
:101F9000E96E0F0EE926010EEA22EF740BD0FE0E59
:101FA000EA6ADB34FE0BEA36E96E070EE926010E1B
:101FB000EA22EF74DECF0BF0DDCF0CF00BC0F3FFA5
:101FC0000CC0F4FF020EE15C03E200D0E16AE552CE
:101FD000E16EE552E7CFD9FF1200D9CFE6FFE1CF9E
:101FE000D9FF6DA84ED0FE0EEA6ADB34FE0BEA364E
:101FF000E96E0F0EE926010EEA22EE50EFCFEAFF5E
:10200000E96E400EEE16EE6AEE6AEE6AFE0EEA6ABF
:10201000DB34FE0BEA36E96E0F0EE926010EEA22EA
:10202000EE50EFCFEAFFE96EEE7CFE0EEA6ADB349B
:10203000FE0BEA36E96E0F0EE926010EEA22EF7476
:10204000400E0B6EFE0EEA6ADB34FE0BEA36E96EDA
:102050000F0EE926010EEA22EE50EFCFEAFFE96EFD
:102060000B50EF16FE0EEA6ADB34FE0BEA36E96E21
:102070000F0EE926010EEA22EE50EFCFEAFFE96EDD
:10208000EF7CE552E7CFD9FF120005D06D6A696A8F
:102090000101006B00D012000101005113E16D6AD3
:1020A000696A160E6F6E9F0E6B6E7B0E696ED08E18
:1020B000A28AA08AF28E6DB602D06D86FCD701018D
:0620C000010E006F12008A
:0A20C600DACFE4FFE2CFDAFFE9CF42
:1020D000E4FFEACFE4FFF6CFE4FFF7CFE4FFF5CF6C
:1020E000E4FFF3CFE4FFF4CFE4FFFACFE4FF00EE28
:1020F00000F00B0EE80403E3EECFE4FFFBD700EEA5
:102100000BF0030EE80403E3EECFE4FFFBD7E65247
:10211000F294480ED76E670ED66E870ED56E6AECB7
:1021200008F0E55200EE0DF0030EE80403E3E5CFFE
:10213000EDFFFBD700EE0AF00B0EE80403E3E5CF5A
:10214000EDFFFBD7E5CFFAFFE5CFF4FFE5CFF3FFD7
:10215000E5CFF5FFE5CFF7FFE5CFF6FFE5CFEAFFE7
:10216000E5CFE9FFE5CFDAFF1100D8CFE4FFE0CFFC
:10217000E4FFE46EDACFE4FFE2CFDAFFE652E552A5
:10218000E5CFDAFFE550E5CFE0FFE5CFD8FF10005F
:102190001BD84CEC10F095909592959495968C9058
:1021A0008C928C948C96926A956A966A949094928A
:1021B0009494949C949E939A9390939293949396D0
:1021C000969410D8FED712000F0EC11202D81CEF41
:1021D00008F00001010EA36FF00E8C16951693887F
:1021E000938A1200200E0101E76E0019E8AE02D0BA
:1021F000E73402D0E750005D03E36D50020B01E0CD
:1022000015D0100EE66EA60EE66E000EE66E79ECA8
:1022100014F0E552E552E552A7C0E6FF30D9E55289
:10222000A8C0E6FFC1D9E5527EEC15F0120000010E
:10223000DE51DF1104E1100EDE6F270EDF6FDE07C7
:10224000000EDF5B6DA20AD0DE51DF1106E18C705B
:102250008CA002D08C8201D08C922ED00101005132
:1022600003E18C908C9228D0000503E18C808C8255
:1022700023D0020E005D03E18C808C921DD0040EF1
:10228000005D03E18C908C8217D0100E005D07E199
:102290000001DE51DF1102E18C708C920DD0200E16
:1022A000005D0AE10001DE51DF1106E18C708CA0B7
:1022B00002D08C9201D08C82120012001200120007
:1022C0001200F3EF13F0120044EF14F06D840001DC
:1022D000080EA46F070EA56FA407000EA55BA451FE
:1022E000A511FAE16D941200D9CFE6FFE1CFD9FF35
:1022F000FD0EDBCF06F0FE0EDBCF07F0720E0618E8
:1023000001E1075033E0E868061802E1E8680718C1
:102310002BE0740E061801E1075024E0750E061834
:1023200001E107501DE0730E061801E1075016E0A9
:10233000030E061801E107500FE0020E061801E136
:10234000075008E0010E061801E1075001E010D027
:10235000BBDF0FD0B8DF0DD0B4DF0BD0B0DF09D0BA
:10236000ACDF07D0ABDF05D0ABDF03D0000001D07E
:1023700000D0010E00D0E552E7CFD9FF1200D9CF2F
:10238000E6FFE1CFD9FFFE0EDB5012E0E66AE66A17
:10239000E66A010EE66EC7D9E552E552E552E5520E
:1023A000DAC0E6FFF6EC16F0E552FE0EDB0609D0C9
:1023B000E66AE66AE66AE66AB6D9E552E552E552A9
:1023C000E552FE0EDB5012E0E66A010EE66EE66AAA
:1023D000E66AA9D9E552E552E552E552DAC0E6FFD0
:1023E000F6EC16F0E552FE0EDB0609D0E66AE66A68
:1023F000E66AE66A98D9E552E552E552E552FE0EE4
:10240000DB5012E0E66AE66A010EE66EE66A8BD9F8
:10241000E552E552E552E552DAC0E6FFF6EC16F079
:10242000E552FE0EDB0609D0E66AE66AE66AE66A6F
:102430007AD9E552E552E552E552FE0EDB5012E044
:10244000010EE66EE66AE66AE66A6DD9E552E55285
:10245000E552E552DAC0E6FFF6EC16F0E552FE0E64
:10246000DB0609D0E66AE66AE66AE66A5CD9E55206
:10247000E552E552E552E552E7CFD9FF1200D9CF38
:10248000E6FFE1CFD9FFFE0EDB5061083CE1E66AD2
:10249000E66AE66A010EE66E46D9E552E552E55275
:1024A000E552DAC0E6FFF6EC16F0E552E66A010EF8
:1024B000E66EE66AE66A37D9E552E552E552E5523C
:1024C000DAC0E6FFF6EC16F0E552E66AE66A010EBF
:1024D000E66EE66A28D9E552E552E552E552DAC0E1
:1024E000E6FFF6EC16F0E552010EE66EE66AE66AE5
:1024F000E66A19D9E552E552E552E552DAC0E6FF3F
:10250000F6EC16F0E552FE0EDB5063083CE1010EDE
:10251000E66EE66AE66AE66A06D9E552E552E552F3
:10252000E552DAC0E6FFF6EC16F0E552E66AE66A36
:10253000010EE66EE66AF7D8E552E552E552E5523D
:10254000DAC0E6FFF6EC16F0E552E66A010EE66E3A
:10255000E66AE66AE8D8E552E552E552E552DAC0A5
:10256000E6FFF6EC16F0E552E66AE66AE66A010E68
:10257000E66ED9D8E552E552E552E552DAC0E6FFFB
:10258000F6EC16F0E552FE0EDB50730809E1E66A40
:10259000E66AE66AE66AC7D8E552E552E552E552D0
:1025A000E552E7CFD9FF1200D9CFE6FFE1CFD9FF3F
:1025B000FE0EDB5062083CE1E66AE66AE66A010E5E
:1025C000E66ED1D8E552E552E552E552DAC0E6FFB3
:1025D000F6EC16F0E552E66A010EE66EE66AE66A89
:1025E000C2D8E552E552E552E552DAC0E6FFF6EC14
:1025F00016F0E552E66AE66A010EE66EE66AB3D8C0
:10260000E552E552E552E552DAC0E6FFF6EC16F087
:10261000E552010EE66EE66AE66AE66AA4D8E5527D
:10262000E552E552E552DAC0E6FFF6EC16F0E55267
:10263000FE0EDB5064083CE1010EE66EE66AE66AD7
:10264000E66A91D8E552E552E552E552DAC0E6FF76
:10265000F6EC16F0E552E66AE66A010EE66EE66A08
:1026600082D8E552E552E552E552DAC0E6FFF6ECD3
:1026700016F0E552E66A010EE66EE66AE66A73D87F
:10268000E552E552E552E552DAC0E6FFF6EC16F007
:10269000E552E66AE66AE66A010EE66E64D8E5523D
:1026A000E552E552E552DAC0E6FFF6EC16F0E552E7
:1026B000FE0EDB50730809E1E66AE66AE66AE66A3E
:1026C00052D8E552E552E552E552E552E7CFD9FF3F
:1026D0001200D9CFE6FFE1CFD9FFFE0EDB50010B90
:1026E000E8B0818AE8A0819AFE0EDB407F0B010BE7
:1026F000E8B08082E8A08092FE0EDB40E8403F0B0D
:10270000010BE8B08086E8A08096FE0EDB40E84032
:10271000E8401F0B010BE8B08084E8A08094E552EC
:10272000E7CFD9FF1200D9CFE6FFE1CFD9FFFE0EE8
:10273000DB50E8B0818AE8A0819AFD0EDB50E8B05A
:102740008082E8A08092FC0EDB50E8B08086E8A092
:102750008096FB0EDB50E8B08084E8A08094E552C0
:10276000E7CFD9FF1200D9CFE6FFE1CFD9FFFE0EA8
:10277000DB50E8B08088E8A08098FD0EDB50E8B020
:10278000808AE8A0809AFC0EDB50E8B08482E8A042
:102790008492FB0EDB50E8B08480E8A08490E55280
:1027A000E7CFD9FF1200D9CFE6FFE1CFD9FFFE0E68
:1027B000DB50E8B08280E8A08290FD0EDB50E8B0EC
:1027C0008282E8A08292FC0EDB50E8B08382E8A00F
:1027D0008392FB0EDB50E8B08380E8A08390E55243
:0627E000E7CFD9FF120053
:0A27E600040140511F0B010801E03F
:1027F0004AD04051600BE842E842E842E842E842F1
:10280000010801E040D0445103E0440501E03BD021
:102810004151220A33E0030A26E0010A17E0210AA7
:102820000EE0010A01E02FD00101F10E196F000E38
:102830001A6F080E1C6F1D6B1B811B8F24D00101AA
:10284000F10E196F000E1A6F1B8F1DD046C421F1B7
:1028500047C422F10101880E1E6F050E1F6F236B06
:10286000246B208F10D00101880E196F050E1A6F8E
:10287000070E1C6F1D6BC10E1B6F05D042C4ECF020
:1028800001011B8F00D012000501886BC20E896FF9
:10289000010E8A6F8B6B8C6B8D6B080E8E6F000137
:1028A000E16BE06B1A0EE66E020EE66ECEEC0EF0F9
:1028B000E552E5521E0EE66E030EE66ECEEC0EF00D
:1028C000E552E552400EE66E080EE66E050EE66E27
:1028D000E66A030EE66E74EC0FF00B6E050EE15E19
:1028E0000B50F3CFE8F0F4CFE9F00001EA6BEB6BAB
:1028F0001200D9CFE6FFE1CFD9FF0001E06BE8512C
:10290000E91102E1000E08D0E8C0E9FFE9C0EAFFE2
:10291000EF50800B01E0010E000945E1FC0EDBCF1A
:102920000BF0E8C0E9FFE9C0EAFFEE52EF50D880B3
:102930000B5408E2E8C0E9FFE9C0EAFFEE52FC0EE2
:10294000EFCFDBFFE06BFC0EDB50E05D19E2E05106
:10295000EA6A080FE96E050EEA22EF50E66EE051D2
:10296000E76EFD0EDBCFE9FFFE0EDBCFEAFFE7509F
:10297000E926000EEA22E552E750EF6EE02BE3D79E
:10298000400EE66E080EE66E050EE66EE66A030E73
:10299000E66E74EC0FF00B6E050EE15E0B50F3CF9C
:1029A000E8F0F4CFE9F00001E05100D0E552E7CFC4
:1029B000D9FF1200D9CFE6FFE1CFD9FFA09A0001DD
:1029C000E1510CE1FD0EDBCFE2F0FE0EDBCFE3F0D8
:1029D000FC0EDBCFE6F0010EE76FE16FA08AE55257
:1029E000E7CFD9FF1200D9CFE6FFE1CFD9FF030E21
:1029F000E126A09A0001E15102E0A08A2FD0DF6A0F
:102A0000FD0EDBCF06F0FE0EDBCF07F0DE5206C078
:102A1000DEFF07C0DDFFDD52DF2ADF500B6E0C6AE0
:102A2000FF0E0B1801E10C5001E10BD0010EDBCFC2
:102A3000E9FFDB2A020EDBCFEAFF01E3DB2AEF50DE
:102A4000EBE1FD0EDBCFE2F0FE0EDBCFE3F0DFCFFC
:102A5000E6F00001010EE76FE16FA08A030EE15C72
:102A600002E2E16AE552E16EE552E7CFD9FF1200DA
:102A7000D9CFE6FFE1CFD9FF030EE126A09A0001EE
:102A8000E15102E0A08A30D0DF6AFD0EDBCF06F014
:102A9000FE0EDBCF07F0DE5206C0DEFF07C0DDFF13
:102AA000DD52DF2ADF500B6E0C6AFF0E0B1801E1BE
:102AB0000C5001E10CD0010EDBCFF6FFDB2A020E39
:102AC000DBCFF7FF01E3DB2A0800F550EAE1FD0E5A
:102AD000DBCFE2F0FE0EDBCFE3F0DFCFE6F000016C
:102AE000E76B010EE16FA08A030EE15C02E2E16A8E
:102AF000E552E16EE552E7CFD9FF1200D9CFE6FFEC
:102B0000E1CFD9FF020EE126A09A0001EA51EB11B4
:102B100002E1000E08D0EAC0E9FFEBC0EAFFEF5087
:102B2000800B01E0010E000902E0A08A87D0030EAD
:102B3000E15D01E1E16BE15102E1A08A7FD0020E8B
:102B4000E15D16E1E66A000EE66EE66A010EE66EEB
:102B5000030EE66E74EC0FF00B6E050EE15E0B508B
:102B6000F3CFEAF0F4CFEBF00001030EE16F65D094
:102B7000E10563E1400E0B6E0C6AE6510B5C000E42
:102B80000C5803E2400EDF6E02D0E6C0DFFFDF50DC
:102B9000E65DE66F480EE46F050EE56F010EDFCFD0
:102BA000DBFFE75117E1010EDB5013E0E2C0F6FF57
:102BB000E3C0F7FF0800F550E4C0E9FFE5C0EAFF15
:102BC000EF6EE42B000EE523E22BE323010EDB0680
:102BD000EAD715D0010EDB5012E0E2C0E9FFE3C0F6
:102BE000EAFFEF50E4C0E9FFE5C0EAFFEF6EE42B37
:102BF000000EE523E22BE323010EDB06EBD7E651C3
:102C000008E1400EDF5C03E1020EE16F02D0030E2B
:102C1000E16FDFCFE6FF480EE66E050EE66E010EB1
:102C2000E66E030EE66E74EC0FF00B6E050EE15EC1
:102C30000B50F3CFEAF0F4CFEBF0A08A020EE15C88
:102C400002E2E16AE552E16EE552E7CFD9FF1200F8
:102C50001201000202000008D8040A00000101026B
:102C6000000109024300020100C0C809040000017C
:102C700002020100052400100104240202052406BA
:102C80000001052401000107058203080002090470
:102C90000100020A000000070503024000000705CA
:102CA00083024000000403090434034D00690063FB
:102CB0000072006F0063006800690070002000541B
:102CC000006500630068006E006F006C006F0067B5
:102CD000007900200049006E0063002E0034034399
:102CE00000440043002000520053002D0032003306
:102CF000003200200045006D0075006C006100741A
:102D00000069006F006E002000440065006D006FD8
:092D100000622CA52CA92CDD2C7D
:062D1A002A0EF66E100EF9
:102D2000F76E000EF86E01010900F5503B6F0900C7
:102D3000F5503C6F03E13B6701D03DD00900F550F1
:102D4000366F0900F550376F0900F550386F0900EC
:102D50000900F550E96E0900F550EA6E0900090016
:102D60000900F550396F0900F5503A6F0900090064
:102D7000F6CF3DF1F7CF3EF1F8CF3FF136C1F6FF88
:102D800037C1F7FF38C1F8FF0101395302E13A5367
:102D900007E00900F550EE6E3907F8E23A07F9D777
:102DA0003DC1F6FF3EC1F7FF3FC1F8FF01013B0700
:082DB000000E3C5BBFD71200CE
:082DB800FE0EE3CFE9FFFF0E60
:102DC000E3CFEAFFE9CFF3FFEACFF4FFFB0EE350D6
:102DD00003E1FC0EE35009E0FB0EE30602E2FC0E09
:0C2DE000E306FD0EE350EE6EF1D712008A
:042DEC00FF0EE350A3
:102DF0000E6E480E01D04C0EE76EE72EFED7E76A46
:0C2E0000E72EFED70E2EF7D700001200C0
:042E0C00000EF36E53
:102E100000EE00F0040E01D81200EA6002D0EE6A63
:0C2E2000FCD7F350E9601200EE6AFCD70A
:042E2C0013EE00F0B1
:102E300023EE00F0F86A0A9C8DEC16F024EC17F0F3
:082E4000C8EC10F0FBD71200F2
:022E4800120076
:062E4A007600000000000C
:102E50000000000000000000000000000000000072
:102E6000000000000000000000000000000001025F
:102E700003040506070C0A0B0000000000006400B4
:042E8000000000004E
:020000040030CA
:0100000024DB
:010001000EF0
:010002003FBE
:010003001EDE
:010005008179
:010006008178
:010008000FE8
:01000900C036
:01000A000FE6
:01000B00E014
:01000C000FE4
:01000D0040B2
:00000001FF
